{
  "contractName": "Verifier",
  "abi": [
    {
      "constant": false,
      "inputs": [
        {
          "internalType": "address",
          "name": "party2",
          "type": "address"
        }
      ],
      "name": "createAgreement",
      "outputs": [
        {
          "internalType": "uint256",
          "name": "agreementID",
          "type": "uint256"
        }
      ],
      "payable": false,
      "stateMutability": "nonpayable",
      "type": "function"
    },
    {
      "constant": true,
      "inputs": [
        {
          "internalType": "uint256",
          "name": "agreeID",
          "type": "uint256"
        }
      ],
      "name": "getAgreement",
      "outputs": [
        {
          "components": [
            {
              "internalType": "address",
              "name": "party1",
              "type": "address"
            },
            {
              "internalType": "address",
              "name": "party2",
              "type": "address"
            }
          ],
          "internalType": "struct Verifier.Agreement",
          "name": "",
          "type": "tuple"
        }
      ],
      "payable": false,
      "stateMutability": "view",
      "type": "function"
    }
  ],
  "bytecode": "0x60806040526000805534801561001457600080fd5b5061046c806100246000396000f3fe608060405234801561001057600080fd5b50600436106100365760003560e01c80634f9f6fe61461003b578063884eb9491461006b575b600080fd5b61005560048036036100509190810190610313565b61009b565b6040516100629190610389565b60405180910390f35b610085600480360361008091908101906102ea565b610174565b60405161009291906103a4565b60405180910390f35b6100a361027a565b600160008381526020019081526020016000206040518060400160405290816000820160009054906101000a900473ffffffffffffffffffffffffffffffffffffffff1673ffffffffffffffffffffffffffffffffffffffff1673ffffffffffffffffffffffffffffffffffffffff1681526020016001820160009054906101000a900473ffffffffffffffffffffffffffffffffffffffff1673ffffffffffffffffffffffffffffffffffffffff1673ffffffffffffffffffffffffffffffffffffffff16815250509050919050565b600060405180604001604052803373ffffffffffffffffffffffffffffffffffffffff1681526020018373ffffffffffffffffffffffffffffffffffffffff16815250600160008054815260200190815260200160002060008201518160000160006101000a81548173ffffffffffffffffffffffffffffffffffffffff021916908373ffffffffffffffffffffffffffffffffffffffff16021790555060208201518160010160006101000a81548173ffffffffffffffffffffffffffffffffffffffff021916908373ffffffffffffffffffffffffffffffffffffffff16021790555090505060008081548092919060010191905055506001600054039050919050565b6040518060400160405280600073ffffffffffffffffffffffffffffffffffffffff168152602001600073ffffffffffffffffffffffffffffffffffffffff1681525090565b6000813590506102cf816103fb565b92915050565b6000813590506102e481610412565b92915050565b6000602082840312156102fc57600080fd5b600061030a848285016102c0565b91505092915050565b60006020828403121561032557600080fd5b6000610333848285016102d5565b91505092915050565b610345816103bf565b82525050565b604082016000820151610361600085018261033c565b506020820151610374602085018261033c565b50505050565b610383816103f1565b82525050565b600060408201905061039e600083018461034b565b92915050565b60006020820190506103b9600083018461037a565b92915050565b60006103ca826103d1565b9050919050565b600073ffffffffffffffffffffffffffffffffffffffff82169050919050565b6000819050919050565b610404816103bf565b811461040f57600080fd5b50565b61041b816103f1565b811461042657600080fd5b5056fea365627a7a7231582091d175419d24082ce6c89b532714508304d2a4bb8bdda050b013307c4d93bd8c6c6578706572696d656e74616cf564736f6c63430005100040",
  "source": "pragma solidity >=0.4.22 <0.9.0;\n\npragma experimental ABIEncoderV2;\n\ncontract Verifier{\n\n    uint private nextAgreeID = 0;\n\n    struct Agreement{\n        address party1;\n        address party2;\n    }\n\n    mapping(uint => Agreement) agreements;\n\n    function createAgreement(address party2) public returns(uint agreementID){\n        \n        agreements[nextAgreeID] = Agreement(msg.sender, party2);\n        nextAgreeID++;\n        return nextAgreeID - 1;\n    }\n\n    function getAgreement(uint agreeID) public view returns(Agreement memory){\n        return agreements[agreeID];\n    }\n\n\n}",
  "sourcePath": "/media/kaleb/Data/Werk/2021/COS301/Capstone/repo/Smart-Contract-Verifier/src/contracts/Verifier.sol",
  "compiler": {
    "name": "solc",
    "version": "0.5.16+commit.9c3226ce.Emscripten.clang"
  },
  "schemaVersion": "3.4.1",
  "updatedAt": "2021-05-29T13:27:18.636Z",
  "networkType": "ethereum",
  "devdoc": {
    "methods": {}
  },
  "userdoc": {
    "methods": {}
  }
}