{
  "contractName": "Verifier",
  "abi": [
    {
      "constant": false,
      "inputs": [
        {
          "internalType": "address",
          "name": "party2",
          "type": "address"
        },
        {
          "internalType": "uint256",
          "name": "resolutionTime",
          "type": "uint256"
        }
      ],
      "name": "createAgreement",
      "outputs": [
        {
          "internalType": "uint256",
          "name": "agreementID",
          "type": "uint256"
        }
      ],
      "payable": false,
      "stateMutability": "nonpayable",
      "type": "function"
    },
    {
      "constant": false,
      "inputs": [
        {
          "internalType": "uint256",
          "name": "agreeID",
          "type": "uint256"
        }
      ],
      "name": "acceptAgreement",
      "outputs": [],
      "payable": false,
      "stateMutability": "nonpayable",
      "type": "function"
    },
    {
      "constant": true,
      "inputs": [
        {
          "internalType": "uint256",
          "name": "agreeID",
          "type": "uint256"
        }
      ],
      "name": "getAgreement",
      "outputs": [
        {
          "components": [
            {
              "internalType": "address",
              "name": "party1",
              "type": "address"
            },
            {
              "internalType": "address",
              "name": "party2",
              "type": "address"
            },
            {
              "internalType": "bool",
              "name": "accepted",
              "type": "bool"
            },
            {
              "internalType": "uint256",
              "name": "resolutionTime",
              "type": "uint256"
            }
          ],
          "internalType": "struct Verifier.Agreement",
          "name": "",
          "type": "tuple"
        }
      ],
      "payable": false,
      "stateMutability": "view",
      "type": "function"
    },
    {
      "constant": false,
      "inputs": [
        {
          "internalType": "uint256",
          "name": "agreeID",
          "type": "uint256"
        }
      ],
      "name": "closeAgreement",
      "outputs": [],
      "payable": false,
      "stateMutability": "nonpayable",
      "type": "function"
    }
  ],
  "bytecode": "0x60806040526000805534801561001457600080fd5b506107d2806100246000396000f3fe608060405234801561001057600080fd5b506004361061004c5760003560e01c806333a82a9b146100515780633ae776d2146100815780634f9f6fe61461009d578063c7386704146100cd575b600080fd5b61006b600480360361006691908101906105ed565b6100e9565b60405161007891906106fe565b60405180910390f35b61009b60048036036100969190810190610629565b61025a565b005b6100b760048036036100b29190810190610629565b6102f6565b6040516100c491906106e3565b60405180910390f35b6100e760048036036100e29190810190610629565b6103f4565b005b60004282101561011b577fffffffffffffffffffffffffffffffffffffffffffffffffffffffffffffffff9050610254565b60405180608001604052803373ffffffffffffffffffffffffffffffffffffffff1681526020018473ffffffffffffffffffffffffffffffffffffffff16815260200160001515815260200183815250600160008054815260200190815260200160002060008201518160000160006101000a81548173ffffffffffffffffffffffffffffffffffffffff021916908373ffffffffffffffffffffffffffffffffffffffff16021790555060208201518160010160006101000a81548173ffffffffffffffffffffffffffffffffffffffff021916908373ffffffffffffffffffffffffffffffffffffffff16021790555060408201518160010160146101000a81548160ff02191690831515021790555060608201518160020155905050600080815480929190600101919050555060016000540390505b92915050565b6001600082815260200190815260200160002060010160009054906101000a900473ffffffffffffffffffffffffffffffffffffffff1673ffffffffffffffffffffffffffffffffffffffff163373ffffffffffffffffffffffffffffffffffffffff1614156102f357600180600083815260200190815260200160002060010160146101000a81548160ff0219169083151502179055505b50565b6102fe61056d565b600160008381526020019081526020016000206040518060800160405290816000820160009054906101000a900473ffffffffffffffffffffffffffffffffffffffff1673ffffffffffffffffffffffffffffffffffffffff1673ffffffffffffffffffffffffffffffffffffffff1681526020016001820160009054906101000a900473ffffffffffffffffffffffffffffffffffffffff1673ffffffffffffffffffffffffffffffffffffffff1673ffffffffffffffffffffffffffffffffffffffff1681526020016001820160149054906101000a900460ff161515151581526020016002820154815250509050919050565b6001600082815260200190815260200160002060000160009054906101000a900473ffffffffffffffffffffffffffffffffffffffff1673ffffffffffffffffffffffffffffffffffffffff163373ffffffffffffffffffffffffffffffffffffffff1614806104c557506001600082815260200190815260200160002060010160009054906101000a900473ffffffffffffffffffffffffffffffffffffffff1673ffffffffffffffffffffffffffffffffffffffff163373ffffffffffffffffffffffffffffffffffffffff16145b1561056a5760016000828152602001908152602001600020600201544211156105695760016000828152602001908152602001600020600080820160006101000a81549073ffffffffffffffffffffffffffffffffffffffff02191690556001820160006101000a81549073ffffffffffffffffffffffffffffffffffffffff02191690556001820160146101000a81549060ff0219169055600282016000905550505b5b50565b6040518060800160405280600073ffffffffffffffffffffffffffffffffffffffff168152602001600073ffffffffffffffffffffffffffffffffffffffff168152602001600015158152602001600081525090565b6000813590506105d281610761565b92915050565b6000813590506105e781610778565b92915050565b6000806040838503121561060057600080fd5b600061060e858286016105c3565b925050602061061f858286016105d8565b9150509250929050565b60006020828403121561063b57600080fd5b6000610649848285016105d8565b91505092915050565b61065b81610719565b82525050565b61066a8161072b565b82525050565b6080820160008201516106866000850182610652565b5060208201516106996020850182610652565b5060408201516106ac6040850182610661565b5060608201516106bf60608501826106c5565b50505050565b6106ce81610757565b82525050565b6106dd81610757565b82525050565b60006080820190506106f86000830184610670565b92915050565b600060208201905061071360008301846106d4565b92915050565b600061072482610737565b9050919050565b60008115159050919050565b600073ffffffffffffffffffffffffffffffffffffffff82169050919050565b6000819050919050565b61076a81610719565b811461077557600080fd5b50565b61078181610757565b811461078c57600080fd5b5056fea365627a7a723158208ca5b11c5aabcd3b2e22c8276f263423f0023a3d8732017a98ea32c8d1e0fa9b6c6578706572696d656e74616cf564736f6c63430005100040",
  "source": "pragma solidity >=0.4.22 <0.9.0;\n\npragma experimental ABIEncoderV2;\n\ncontract Verifier{\n\n    uint private nextAgreeID = 0;\n\n    struct Agreement{\n        address party1;\n        address party2;\n        bool accepted;\n        uint resolutionTime;\n    }\n\n    // Non-existent entries will return a struct filled with 0's\n    mapping(uint => Agreement) agreements;\n\n    function createAgreement(address party2, uint resolutionTime) public returns(uint agreementID){\n        if(resolutionTime < block.timestamp)\n            return 2**256 - 1;\n\n        agreements[nextAgreeID] = Agreement(msg.sender, party2, false, resolutionTime);\n        nextAgreeID++;\n        return nextAgreeID - 1;\n    }\n\n    function acceptAgreement(uint agreeID) public{\n        // if(agreements[agreeID].party1 == address(0))\n        //     return;\n\n        if(msg.sender == agreements[agreeID].party2){\n            agreements[agreeID].accepted = true;\n        }\n    }\n\n    function getAgreement(uint agreeID) public view returns(Agreement memory){\n        return agreements[agreeID];\n    }\n\n    function closeAgreement(uint agreeID) public{\n        if(msg.sender == agreements[agreeID].party1\n                || msg.sender == agreements[agreeID].party2){\n            if(block.timestamp > agreements[agreeID].resolutionTime)\n                delete agreements[agreeID];\n        }\n    }\n\n}",
  "sourcePath": "/media/kaleb/Data/Werk/2021/COS301/Capstone/repo/Smart-Contract-Verifier/src/contracts/Verifier.sol",
  "compiler": {
    "name": "solc",
    "version": "0.5.16+commit.9c3226ce.Emscripten.clang"
  },
  "schemaVersion": "3.4.1",
  "updatedAt": "2021-06-01T19:49:20.229Z",
  "networkType": "ethereum",
  "devdoc": {
    "methods": {}
  },
  "userdoc": {
    "methods": {}
  }
}