{
    "contractName": "Verifier",
    "abi": [
        {
            "inputs": [
                {
                    "internalType": "uint256",
                    "name": "agreeID",
                    "type": "uint256"
                }
            ],
            "name": "acceptAgreement",
            "outputs": [],
            "stateMutability": "nonpayable",
            "type": "function"
        },
        {
            "inputs": [
                {
                    "internalType": "uint256",
                    "name": "agreeID",
                    "type": "uint256"
                }
            ],
            "name": "closeAgreement",
            "outputs": [],
            "stateMutability": "nonpayable",
            "type": "function"
        },
        {
            "inputs": [
                {
                    "internalType": "address",
                    "name": "party2",
                    "type": "address"
                },
                {
                    "internalType": "uint256",
                    "name": "resolutionTime",
                    "type": "uint256"
                }
            ],
            "name": "createAgreement",
            "outputs": [
                {
                    "internalType": "uint256",
                    "name": "agreementID",
                    "type": "uint256"
                }
            ],
            "stateMutability": "nonpayable",
            "type": "function"
        },
        {
            "inputs": [
                {
                    "internalType": "uint256",
                    "name": "agreeID",
                    "type": "uint256"
                }
            ],
            "name": "getAgreement",
            "outputs": [
                {
                    "components": [
                        {
                            "internalType": "address",
                            "name": "party1",
                            "type": "address"
                        },
                        {
                            "internalType": "address",
                            "name": "party2",
                            "type": "address"
                        },
                        {
                            "internalType": "bool",
                            "name": "accepted",
                            "type": "bool"
                        },
                        {
                            "internalType": "uint256",
                            "name": "resolutionTime",
                            "type": "uint256"
                        }
                    ],
                    "internalType": "struct Verifier.Agreement",
                    "name": "",
                    "type": "tuple"
                }
            ],
            "stateMutability": "view",
            "type": "function"
        }
    ],
    "bytecode": "60806040526000805534801561001457600080fd5b506103c1806100246000396000f3fe608060405234801561001057600080fd5b506004361061004c5760003560e01c806333a82a9b146100515780633ae776d2146100775780634f9f6fe61461008c578063c738670414610159575b600080fd5b61006461005f3660046102f5565b61016c565b6040519081526020015b60405180910390f35b61008a61008536600461032b565b610219565b005b61011661009a36600461032b565b60408051608081018252600080825260208201819052918101829052606081019190915250600090815260016020818152604092839020835160808101855281546001600160a01b0390811682529382015493841692810192909252600160a01b90920460ff1615159281019290925260020154606082015290565b60405161006e919081516001600160a01b039081168252602080840151909116908201526040808301511515908201526060918201519181019190915260800190565b61008a61016736600461032b565b610263565b604080516080810182523381526001600160a01b03848116602080840191825260008486018181526060860188815282548352600193849052968220955186546001600160a01b031916908616178655925191850180549351929094166001600160a81b031990931692909217600160a01b91151591909102179091559151600290910155805481806101fe8361035a565b919050555060016000546102129190610343565b9392505050565b600081815260016020819052604090912001546001600160a01b031633141561026057600081815260016020819052604090912001805460ff60a01b1916600160a01b1790555b50565b6000818152600160205260409020546001600160a01b03163314806102a25750600081815260016020819052604090912001546001600160a01b031633145b1561026057600081815260016020526040902060020154421115610260576000908152600160208190526040822080546001600160a01b031916815590810180546001600160a81b031916905560020155565b60008060408385031215610307578182fd5b82356001600160a01b038116811461031d578283fd5b946020939093013593505050565b60006020828403121561033c578081fd5b5035919050565b60008282101561035557610355610375565b500390565b600060001982141561036e5761036e610375565b5060010190565b634e487b7160e01b600052601160045260246000fdfea2646970667358221220f65c9585f8cfb2ae78a6b0acb90afd01733ec11a46966ea2b1e7710d444858cf64736f6c63430008040033",
    "sourcePath": "/media/kaleb/Data/Werk/2021/COS301/Capstone/repo/Smart-Contract-Verifier/src/contracts/Verifier.sol",
    "compiler": {
        "name": "solc",
        "version": "0.8.4+commit.c7e474f2"
    },
    "functionHashes": {
        "acceptAgreement(uint256)": "3ae776d2",
        "closeAgreement(uint256)": "c7386704",
        "createAgreement(address,uint256)": "33a82a9b",
        "getAgreement(uint256)": "4f9f6fe6"
    },
    "gasEstimates": {
        "creation": {
            "codeDepositCost": "192200",
            "executionCost": "5244",
            "totalCost": "197444"
        },
        "external": {
            "acceptAgreement(uint256)": "22058",
            "closeAgreement(uint256)": "49736",
            "createAgreement(address,uint256)": "84865",
            "getAgreement(uint256)": "3205"
        }
    }
}